:020000040800F2
:100000001007002001010008BB1D0008731C000838
:10001000B91D00082507000879210008000000002C
:10002000000000000000000000000000BF1D0008EC
:100030002707000800000000BD1D0008C11D0008C2
:100040001B0100081B0100081B0100081B01000820
:100050001B0100081B0100081B0100081B01000810
:100060001B0100081B0100081B0100081B01000800
:100070001B0100081B0100081B0100081B010008F0
:100080001B0100081B0100081B0100081B010008E0
:100090001B0100081B0100081B0100081B010008D0
:1000A0001B0100081B0100081B0100081B010008C0
:1000B000251E00081B0100081B0100081B01000889
:1000C0001B0100081B0100081B0100081B010008A0
:1000D0001B01000859210008652100081B010008C8
:1000E0001B0100081B0100081B010008DFF80CD0F1
:1000F00000F056F900480047AD2300081007002023
:100100000648804706480047FEE7FEE7FEE7FEE7B1
:10011000FEE7FEE7FEE7FEE7FEE7FEE7231E000838
:10012000ED000008D2B201E000F8012B491EFBD21D
:1001300070470022F6E710B513460A4604461946F2
:10014000FFF7F0FF204610BD30B505462A460B46A6
:1001500012F8010B13F8014B08B1A042F8D01CB102
:10016000002802D06D1CF1E7284630BD0FB400B561
:100170008DB010A909900B9000914FF0FF300A90BC
:1001800000200C9005480690054807906A4609A88B
:100190000F9900F0D7F80DB05DF814FB610300086B
:1001A0007F0300082DE9FF5F1D464FF0FF3BD5E9B7
:1001B000014691465F464FF00008A9697F1C0198EF
:1001C0008847296A824688470028F6D1BAF1FF3F5E
:1001D0000CD024F4C064002E19DD600614D5BAF1E9
:1001E0002B0F09D0BAF12D0F0ED103E0584604B001
:1001F000BDE8F09F44F48064A9697F1C019888479A
:10020000761E8246002E02DDBAF1300F03D0B9F11E
:10021000000F26D032E0A969761E44F400747F1CDA
:10022000019888478246002E05DDBAF1780F06D086
:10023000BAF1580F03D0B9F1000F10D01EE0B9F198
:10024000000F02D0B9F1100F18D1A969761E24F45D
:1002500000747F1C019888478246102002E0082025
:1002600000E00A20814609E008FB0908A969761E1A
:1002700044F400747F1C019888478246002E05DDF7
:100280004946504600F04AF80028EDDAE96901983D
:100290008847A00502D46FF00100A8E7E00725D148
:1002A000600613D5600502D5C8F1000000E04046A5
:1002B00029680A1D2A600968220501D5087015E021
:1002C000220701D5088011E008600FE02868011DB1
:1002D00029600068210502D580F8008006E021072A
:1002E00002D5A0F8008001E0C0F8008038467EE723
:1002F00030B50B46014600202022012409E021FAF6
:1003000002F59D4205D303FA02F5491B04FA02F5F2
:100310002844151EA2F10102F1DC30BD3A2800D2BA
:10032000303820F02002412A01D3A2F13700884260
:1003300001D34FF0FF307047026811441378016019
:1003400018467047D1600449516104491162002187
:100350001161114600F03CB839030008C5030008DC
:10036000426842B1016811F8013B23B1521EC0E955
:100370000012184670470121C160881E704742680C
:100380005AB1C368016843B983688B4205D0491EDE
:10039000521CC0E90012002070474FF0FF30704738
:1003A000064C074D06E0E06840F0010394E80700C2
:1003B00098471034AC42F6D3FFF79CFEE8240008BF
:1003C00008250008C0B24FF4F05100F097B90000C2
:1003D0002DE9F34F8BB04FF0000801F10C000C46F3
:1003E0004FF0010B46460DF1080A019062690121A8
:1003F00001989047051E2DD0252D2CD0216A8847C5
:10040000C0B16269012101989047216A884700289C
:10041000F7D1411E62690198904700E0761CA169FE
:100420000B988847216A88470028F7D1E1690B9823
:100430008847DBE7A1690B9888470746A84201D1A6
:10044000761CD3E7E1690B9888477F1C02D1B8F18D
:10045000000F6FD046E1002762693D46394601989A
:1004600090472A2804D1626901210198904701250B
:10047000DFF884926269012101989047A0F1300170
:100480000A290AD24F45E5DC07EB870100EB41075B
:10049000303FDFD445F01005ECE7E90601D46FF0FA
:1004A00000476C280AD04C2814D0682815D06A2838
:1004B0000DD074281CD07A281AD01DE06269012161
:1004C000019890476C2802D045F0040514E045F0EF
:1004D00002050DE045F020050AE06269012101985E
:1004E0009047682802D045F0080505E045F400650E
:1004F0006269012101989047C4E9015765283DD000
:1005000019DC58287AD00CDC452837D004DC2528A3
:1005100026D0412831D131E046282FD047282CD190
:100520002CE05B2877D0612828D063287CD0642811
:1005300023D15AE0D0E06F2848D008DC66281DD0CF
:1005400067281BD0692821D06E2816D127E0702893
:1005500045D0732868D0752847D078280DD14DE054
:10056000A1690B988847054625283FF469AFE169E2
:100570000B9888476D1C3FF46AAFB3E023466A4688
:100580006FF001000B99AFF300809EE045F0400052
:100590006060A80723464FF0000236D43EE0E8072B
:1005A0007FF447AF2068011D21600068290501D54F
:1005B00006701BE7290701D5068017E7A90703D5B1
:1005C000F117C0E9006111E706600FE745F0400050
:1005D0006060A80723464FF0080216D41EE040F6DC
:1005E0000E0125EA0100606016E045F04000606001
:1005F000A80723464FF00A0207D40FE045F0400059
:100600006060A80708D5234610226FF001000B99FF
:10061000AFF3008059E007E0234610226FF001009D
:100620000B99FFF7BFFD50E04FF000094F464B46D6
:10063000632802D05B2806D040E0E80601D4012000
:10064000A06001273AE062690121019890475E2885
:1006500005D14FF001096269494601989047216927
:1006600039B900210A46534643F82120491C08297C
:10067000FADBB0B3216969B9C11700EBD16253113C
:100680000AEB830122F01F02821A01200B689040BE
:1006900003430B6062690121019890475D28E8D10E
:1006A000B9F1000F09D00020514651F82020D24363
:1006B00041F82020401C0828F7DB02AB22460097B7
:1006C0006FF001000B99AFF3008000280CDA401C9A
:1006D00008D1BBF1000F05D04FF0FF300DB0BDE8E1
:1006E000F08FFFE74046F9E7E90701D108F101087B
:1006F00006444FF0000B79E6CCCCCC0C7F2801D916
:10070000002208E0064A02EB5002C007127800D12E
:10071000120902F00F0201209040084070470000CB
:10072000A6240008FEE77047344810B50068C16889
:1007300041F02001C16032A001F020FD32A203216E
:1007400032A000F077F932A001F018FD4FF47A746E
:1007500002E0204600F01AFA2BA208212FA000F098
:1007600069F90028F5D130A001F008FD02E020462B
:1007700000F00CFA24A20D2130A000F05BF9002853
:10078000F5D132A001F0FAFC02E0204600F0FEF9BB
:1007900032A2272135A000F04DF90028F5D13DA067
:1007A00001F0ECFC02E0204600F0F0F916A22D2149
:1007B0003CA000F03FF90028F5D146A001F0DEFC96
:1007C00002E0204600F0E2F90FA20E214AA000F05C
:1007D00031F90028F5D14CA001F0D0FC02E0204610
:1007E00000F0D4F908A20C2151A000F023F9002850
:1007F000F5D1BDE8104052A001F0C0BCC8000020F7
:10080000302E2B2B2B0D0A004F4B00002B2B2B00D7
:10081000302E52455345540D0A00000041542B52CE
:1008200053540D0A00000000312E53455454494ED4
:1008300047204150204D4F44450D0A0041542B4361
:10084000574D4F44453D320D0A000000322E5345AE
:100850005420574946490D0A000000002231393220
:100860002E3136382E342E322200000041542B43D4
:10087000575341503D2231303334222C224C697A77
:10088000696D696E6731333134353230222C312C49
:10089000300D0A00332E55445020434F4E464947F1
:1008A0000D0A000041542B43495053544152543DCA
:1008B00022554450222C223139322E3136382E34F2
:1008C0002E32222C383038302C323334352C300D47
:1008D0000A000000342E5472616E7370617272658A
:1008E0006E74207472616E736D69737374696F6E68
:1008F000206D6F64650D0A0041542B4349504D4FE4
:1009000044453D310D0A0000352E2044415441201C
:100910005472616E7370617272656E74207472616C
:100920006E736D69737374696F6E0D0A0000000059
:1009300041542B43495053454E440D0A00000000DA
:10094000362E4553503832363620494E4954204FC2
:100950004B2121210D0A000030B51D4C85B02078B7
:10096000012831D1A088401CA080012000F00EF9A0
:10097000A0880528F6D317A11748FFF7E5FB002844
:1009800022D0134B01AD2033A3F10802111DA1F1B8
:100990000C0085E80F00001D0090143B103A0FA1D9
:1009A0000D48FFF7E3FBD4E907132069A2698DE83E
:1009B0000F00D4E902120FA0636901F0DFFB0225EA
:1009C000608801F00BFD00E0012505B0284630BD30
:1009D000100000205D000000100100205B25642C49
:1009E00025642C25642C25642C25642C25642C2559
:1009F000645D0000506172736564206E756D6265A0
:100A000072733A20256420616E6420256420616E33
:100A10006420256420616E6420256420616E64205A
:100A2000256420616E6420256420616E6420256445
:100A30000D0A00002DE9F04190460A464FF47A77FE
:100A4000014600253B46154801F0C5F8144C40F618
:100A5000B83603E001206D1C00F098F8207808B942
:100A6000B542F7D3BD4201D3012511E04FF4FA7529
:100A7000A088401CA080012000F088F8A088A8422F
:100A8000F6D3022541460748FFF75EFB00B100257B
:100A9000608801F0A3FC2846BDE8F081C800002072
:100AA000100000201001002072B6FEE710B590F88B
:100AB00021100022022905D00421816380F8202022
:100AC000012010BD01680B6823F00E030B60016864
:100AD0000B6823F001030B6090F84030C46B0121D8
:100AE00001FA03F3636080F8211080F8202010469B
:100AF00010BD000010B590F821100024022903D089
:100B00000421816301243DE001680A6822F00E029D
:100B10000A6001680A6822F001020A601A4A016844
:100B2000914201D1012121E0174A1432914201D1B1
:100B300010211BE0144A2832914201D1891515E099
:100B4000114A3C32914201D189140FE00E4A5032D1
:100B5000914202D14FF4803108E00B4A6432914255
:100B600002D14FF4801101E04FF08071064A083A3B
:100B70005160012180F82110002180F82010416B84
:100B800001B18847204610BD0800024070B50446F8
:100B900000F004F90546601C02D0044800780444C3
:100BA00000F0FCF8401BA042FAD370BD000000200A
:100BB0002DE9F84FDFF8B8910024A9F1040B234682
:100BC0000F2709F1040AABF1040EC9E00125A54085
:100BD0002A40AA427DD1674ED1F804C0ACEB06088A
:100BE000B44532D014DCBCF1030F3AD009DCBCF1BF
:100BF000000F2AD0BCF1010F1CD0BCF1020F31D183
:100C00001DE0BCF1110F17D0BCF1120F2AD119E071
:100C1000B8F5881F19D006DCB8F5803F15D0B8F5B7
:100C2000801F1FD111E0B8F5001F0ED0B8F5041FCA
:100C300018D10AE0CB6815E0CB681B1D12E0CB6829
:100C400008330FE0CB680C330CE08B682BB1012B21
:100C50004FF0080303D0456104E0042302E005617E
:100C600000E00023FF2A01D8064601E000F1040657
:100C70004FEA840501D9A5F12005D6F8008007FACE
:100C800005FC28EA0C0803FA05F548EA0508C6F849
:100C900000804D68ED0062D5374DAE6946F0010623
:100CA000AE61AD6924F0030605F001050095334DF2
:100CB00006EB050CDCF80850A607360F07FA06F815
:100CC00025EA0805DFF8B880404503D14FF0000859
:100CD00017E044E0DFF8AC80404502D14FF0010856
:100CE0000FE0DFF8A480404502D14FF0020808E091
:100CF000DFF89880404502D14FF0030801E04FF043
:100D0000040808FA06F848EA0508CCF808804D6897
:100D1000D9F80060ED024D4601D5164300E0964338
:100D20002E604D68DAF80060AD02554601D51643D5
:100D300000E096432E604D68DBF80060AD035D4631
:100D400001D5164300E096432E604D68DEF8006042
:100D5000ED03754601D5164300E096432E60641CF2
:100D60000D682A46E5407FF431AFBDE8F88F0000FA
:100D70000804014000001110001002400000014072
:100D800000080140000C0140001001400014014027
:100D90000AB1016170470904FBE70000014880685F
:100DA000704700000000002002488168027811446A
:100DB0008160704700000020074810B5016841F0CD
:100DC00010010160032000F075F80F2000F006F814
:100DD00000F024F8002010BD0020024070B50D4D39
:100DE00004464FF47A712878B1FBF0F00A4909689B
:100DF000B1FBF0F000F0DCFA48B9102C07D2002269
:100E00002146501E00F036F800206C6070BD0120B5
:100E100070BD0000000000200C0000200C4808B548
:100E2000816941F001018161816901F00101009155
:100E3000C16941F08051C161C06900F080500090EB
:100E40000448416821F0E06141F00071416008BD53
:100E50000010024000000140002809DB00F01F02E2
:100E6000012191404009800000F1E020C0F800110C
:100E700070470000F0B40E4B1B680C46C3F302230E
:100E8000C3F10705042D00D90425191D072901D236
:100E9000002300E0DB1E012606FA05F1491E214071
:100EA00099409E40761E16403143F0BC01F076B961
:100EB0000CED00E0064900F0070208684FF6FF035A
:100EC000184040EA0220034A1043086070470000BF
:100ED0000CED00E00000FA052DE9F0470F46050093
:100EE00061D0434E306800F00700B84209D2306844
:100EF00020F0070038433060306800F00700B84247
:100F000051D128683B4C810712D5400703D5606852
:100F100040F4E06060602878000703D5606840F422
:100F2000605060606068A96820F0F000084360606D
:100F30002878C00728D06868012810D021680228C6
:100F400010D0890700292EDA616821F003010143DE
:100F50006160FFF723FF804641F288390DE0216888
:100F60008903EFE78901EDE7FFF718FFA0EB080120
:100F7000494502D90320BDE8F0876068696800F040
:100F80000C00B0EB810FEFD1306800F00700B842E1
:100F90000BD9306820F0070038433060306800F02B
:100FA0000700B84201D00120E5E72878400705D5C1
:100FB0006068E96820F4E060084360602878000712
:100FC00006D56068296920F4605040EAC10060607D
:100FD00000F038F86168084AC1F30311515CC84059
:100FE0000649086006480068FFF7F8FE0020C2E7DF
:100FF00000200240001002408E2400080C00002057
:10100000040000200448054900684968044AC1F307
:101010000221515CC84070470C00002000100240C3
:101020009E2400080448054900684968044AC1F341
:10103000C221515CC84070470C00002000100240E3
:101040009E2400080E4A51680E4801F00C03042B40
:1010500011D0082B0FD10C48C1F38343C903C05CE6
:101060000AD55168084AC1F34041921E515C054AB5
:101070005043B0FBF1F0704704494843704700000B
:101080000010024000127A007E24000800093D0092
:101090002DE9F84F040070D02078C04DC00749D02A
:1010A0006868C0F38100012807D06868C0F3810038
:1010B000022809D16868C00306D52868800339D59D
:1010C00060680028E7D035E06068B0F5803F0BD05D
:1010D00010B1B0F5A02F11D0286820F4803028601E
:1010E000286820F4802002E0286840F480302860DE
:1010F000606890B1FFF752FE06460AE0286840F4A7
:1011000080202860F0E700BFFFF748FE801B6428BE
:1011100073D828688003F7D50CE0FFF73FFE06463A
:1011200005E000BFFFF73AFE801B6428F0D828686E
:101130008003F7D420789A4E80074FF001094FF0D2
:10114000000839D5686810F00C0F07D06868C0F344
:101150008100022809D16868C00306D42868800786
:1011600014D52069012808D110E02069B0B1C6F873
:101170000090FFF713FE074605E00AE1FFF70EFEB9
:10118000C01B0228C4D828688007F7D52868616981
:1011900020F0F80040EAC10028600DE0C6F80080A9
:1011A000FFF7FCFD074604E0FFF7F8FDC01B02282F
:1011B00023D828688007F7D4207800072CD57948F1
:1011C000A169D9B1C0F80090FFF7E8FD074604E037
:1011D000FFF7E4FDC01B02280FD8686A8007F7D527
:1011E00071484FF4FA510068B0FBF1F0009000BF75
:1011F0000098411E0091FAD20EE080E0C0F8008015
:10120000FFF7CCFD074604E0FFF7C8FDC01B02282E
:1012100075D8686A8007F7D42078400760D5E869F8
:101220000027C00008D4E86940F08050E861E86910
:10123000012700F0805000905C480168C90513D474
:101240000168834641F480710160FFF7A7FD824683
:1012500006E000BFFFF7A2FDA0EB0A0064284ED80D
:10126000DBF80000C005F5D5E06801280AD008B118
:10127000052813D0286A20F001002862286A20F08F
:10128000040002E0286A40F001002862E06841F2B0
:10129000883B98B1FFF782FD82460BE0286A40F058
:1012A00004002862EEE700BFFFF778FDA0EB0A011B
:1012B00059455AD8286A8007F6D50CE0FFF76EFD2D
:1012C000824605E0FFF76AFDA0EB0A0159454CD8BC
:1012D000286A8007F6D41FB1E86920F08050E861E1
:1012E000E06988B36968C1F38101022944D002280A
:1012F000C6F8608004D0FFF751FD044638E034E0C2
:10130000FFF74CFD074604E0FFF748FDC01B02282D
:101310002BD828688001F7D4206AB0F5803F05D12A
:101320006868A16820F4003008436860D4E90801C7
:101330000843696821F4741108436860C6F8609036
:10134000FFF72CFD044606E025E000BFFFF726FD71
:10135000001B022809D828688001F7D51BE000BFD0
:10136000FFF71CFD001B022802D90320BDE8F88FFF
:1013700028688001F4D40EE00128F7D06868226A5A
:1013800000F48031914204D1616A00F47010884207
:1013900001D00120EAE70020E8E700000010024049
:1013A00000004242800442420C00002000700040D5
:1013B00010B5401EB0F1807F01D3012010BD4FF069
:1013C000E02460610F21601700F0E8FE0020A061BA
:1013D00007202061002010BD7047704770B590F85D
:1013E0003C20012A26D0012480F83C40022280F8CB
:1013F0003D2003685A689D6822F070060A683243EF
:101400005A600D4B02689A4208D0B2F1804F05D065
:101410000A4B9A4202D00A4B9A4204D1496825F0FD
:1014200080031943916080F83D40002180F83C1012
:10143000084670BD022070BD002C01400004004031
:101440000008004010B5040003D094F83D0010B12E
:1014500007E0012010BD002084F83C00204600F089
:101460001FF8022084F83D00211D206800F0E0FCF8
:10147000012084F8460084F83E0084F83F0084F898
:10148000400084F8410084F8420084F8430084F866
:10149000440084F8450084F83D00002010BD0000A1
:1014A00008B50068B0F1804F12D10A48C16941F017
:1014B0000101C161C069002200F0010000901146E5
:1014C0001C20FFF7D7FCBDE808401C20FFF7C4BC78
:1014D00008BD00000010024090F83D10012901D025
:1014E00001207047022180F83D100168CA6842F06F
:1014F0000102CA6000680B49884208D0B0F1804FF1
:1015000005D00949884202D00849884204D181683F
:1015100001F00701062903D0016841F001010160D3
:1015200000207047002C01400004004000080040EB
:1015300070B5044690F83C000025012817D001261C
:1015400084F83C60022084F83D002068826822F024
:10155000770222F47F4282600868502838D00DDC80
:1015600020284FD005DC90B3102811D14AE002208A
:1015700070BD302846D040280AD13BE060282FD0EB
:1015800070280DD0B0F5805F03D0B0F5005F12D0A9
:10159000012584F83D60002084F83C00284670BD99
:1015A000CB68D1E90121206800F078FC20688168CF
:1015B00041F0770109E0CB68D1E90121206800F012
:1015C0006DFC2068816841F480418160E1E719E0A9
:1015D000CA684968206800F073FC5021206806E062
:1015E000CA684968206800F07CFC6021206800F02F
:1015F0005FFCCEE7CA684968206800F061FC4021C2
:101600002068F4E7226801461046F0E7704770B59D
:101610000446006801694FF00005C943890715D4E5
:10162000C168C943890711D4E91E016101202077EF
:10163000206880698007204602D0FFF7E7FF04E0BA
:1016400000F098F8204600F096F8257720680169A8
:10165000C943490717D4C168C943490713D46FF078
:1016600004010161022020772068806910F4407F26
:10167000204602D0FFF7CAFF04E000F07BF82046C6
:1016800000F079F8257720680169C943090716D465
:10169000C168C943090712D46FF008010161042031
:1016A00020772068C0698007204602D0FFF7AEFF90
:1016B00004E000F05FF8204600F05DF82577206830
:1016C0000169C943C90617D4C168C943C90613D4FF
:1016D0006FF010010161082020772068C06910F4C4
:1016E000407F204602D0FFF791FF04E000F042F86F
:1016F000204600F040F8257720680169C943C907F2
:1017000008D1C168C943C90704D1891E01612046B7
:1017100000F032F820680169C943090609D4C1689C
:10172000C943090605D46FF0800101612046FFF727
:1017300053FE20680169C943490609D4C168C943F9
:10174000490605D46FF040010161204600F015F80C
:1017500020680169C94389060BD4C168C943890659
:1017600007D46FF0200101612046BDE87040FFF70B
:1017700034BE70BD70477047704770477047704700
:10178000F8B5016804460868CA684B6910F00F0F85
:101790004FF0000559D003F0010602F4907737436B
:1017A00065D0C10705D0D10503D5616C41F00101B9
:1017B0006164410705D5D90703D0616C41F002018E
:1017C0006164810705D5D90703D0616C41F004013C
:1017D0006164010707D502F02001314303D0616C39
:1017E00041F008016164616C00293AD0800604D59B
:1017F000900602D5204600F0B5FB20684069616C78
:10180000C0F38010090700D460B3204600F083FBCA
:1018100020684069400621D52068143050E8001F38
:1018200021F0400140E80012002AF5D1E06BA8B198
:101830006D494163E06BFFF75DF9002811D0E06B63
:10184000416B01B0BDE8F040084783060FD5930611
:101850000DD52046BDE8F84000F084BB2046FFF7D8
:101860008EFFF8BD2046FFF78AFF6564F8BD266B42
:101870002023012E7CD1C6067AD5D60678D50868F5
:101880004868009048694FF00206400640D5E16B79
:10189000086840680004000CE8D0A28D8242E5D9B7
:1018A000E085886920282DD020680C3050E8001F82
:1018B00021F4807140E80012002AF5D1206814302C
:1018C00050E8001F21F0010140E80012002AF5D184
:1018D0002068143050E8001F21F0400140E8001259
:1018E000002AF5D184F84230256320680C3050E896
:1018F000001F21F0100140E80012002AF5D1E06B32
:10190000FFF7D4F86663A08DE18D401A81B22AE01A
:10191000A08DE18D401A81B2E08D0028A6D000296B
:10192000A4D022680C3252E8000F20F4907042E8F4
:101930000007002FF5D12068143050E8002F22F066
:10194000010240E80027002FF5D184F842302563DA
:1019500020680C3050E8002F22F0100240E80023ED
:10196000002BF5D166632046FFF708FFF8BDFFE7BF
:1019700005062BD5150629D594F841002128F5D167
:10198000A068B0F5805F01D12069B0B1206A411C28
:101990002162216800784860E08C401E0004000C41
:1019A000E084E3D12068C16821F08001C160206833
:1019B000C16841F04001C160D8E7206A0088C0F3E7
:1019C00008004860206A801C2062E5E74006CDD50B
:1019D0005006CBD5CA68204622F04002CA6084F87F
:1019E000413000F045F9C1E7071F000870B5040059
:1019F00004D094F84100002510B106E0012070BD2C
:101A000084F84050204600F023F8242084F8410058
:101A10002068C16821F40051C160204600F004FB39
:101A20002068016921F4904101612068416921F039
:101A30002A0141612068C16841F40051C1606564B8
:101A4000202084F8410084F842006563002070BDC6
:101A500070B586B0002400940194029403942E4E35
:101A600003682E49022003222D4DB34226D18B69F3
:101A700043F480438B618B6903F4804304938B6947
:101A800043F004038B618969039201F0040104911E
:101A90000102CDE9001069462846FFF789F82815AC
:101AA000CDE90004694628460294FFF781F8002238
:101AB00011462520FFF7DEF9252028E0194EB34214
:101AC00027D1CB6943F40033CB61CB6903F40033F6
:101AD00004938B6943F004038B618969039201F0DD
:101AE000040104910421CDE9001069462846FFF75E
:101AF0005FF80820CDE90004694628460294FFF704
:101B000057F8002211462620FFF7B4F92620FFF7E8
:101B1000A3F906B070BD000000380140001002407B
:101B200000080140004400402DE9F843044690F8C5
:101B30004200994616460D46202802D00220BDE8F4
:101B4000F883ADB1A6B100206064222184F8421070
:101B50002063FFF723F9A6858046E685A0684FF449
:101B60008057B84201D1206920B12E46002526E0D9
:101B70000120E4E7002622E04346002220212046FF
:101B8000CDF8009000F0ACFA08B10320D7E726B1F9
:101B9000A068B8421BD038B108E020684068C0F3A4
:101BA000080025F8020B07E0206980B12068406832
:101BB00000F07F0006F8010BE08D401EE085E08D0F
:101BC0000028D9D1202084F842000020B7E72068FF
:101BD0004068EFE770472DE9F843044690F841006C
:101BE0001F4616460D46202802D00220BDE8F88385
:101BF0007DB176B100206064212084F84100FFF7B8
:101C0000CDF8A6848046E684A068B0F5805F02D057
:101C100003E00120EAE7206910B12E4600250EE01E
:101C200000260CE08021204600F05AFAA0B9AEB19F
:101C300016F8010B21684860E08C401EE084E08CBF
:101C400043464FF0000200970028EBD14FF04001CF
:101C5000204600F045FA30B10320C7E735F8020B03
:101C6000C0F30800E6E7202084F841000020BDE72B
:101C70007047FEE770B586B00024184800940194C0
:101C800002940394816941F010018161816901F03E
:101C900010010491816941F020018161816901F0A5
:101CA00020010491816941F00401816180690C4E39
:101CB00000F004004FF400550490002229463046FD
:101CC000FFF766F801200095CDE90104022003909A
:101CD00069463046FEF76CFF06B070BD001002404A
:101CE0000010014010B586B00024164800940194FD
:101CF0000294039404944FF080410594016041F6EE
:101D00001F41C0E901146421C0E903148461FFF795
:101D100099FB08B1FEF7C8FE4FF480500090694669
:101D20000848FFF705FC08B1FEF7BEFE049404A9BD
:101D300004480594FFF752FB002801D0FEF7B4FEDB
:101D400006B010BD380000200C4810B50A490160EB
:101D50004FF4E1314160002181600C22C160C0E993
:101D600004128161C161FFF741FE002803D0BDE884
:101D70001040FEF799BE10BD0038014080000020E1
:101D80000C4810B50A4901604FF4E131416000216F
:101D900081600C22C160C0E904128161C161FFF75A
:101DA00025FE002803D0BDE81040FEF77DBE10BD23
:101DB00000440040C8000020FEE7FEE7704770477F
:101DC000FEF7F2BF30B58FB028216846FEF7B1F9B3
:101DD00014210AA8FEF7ADF901210804CDE900108D
:101DE0000024029402250491CDE907504FF4E0103D
:101DF00009906846FFF74CF908B172B6FEE70F206C
:101E0000CDE90A054FF48060CDE90C4002210AA813
:101E10000E94FFF761F8002801D072B6FEE70FB00C
:101E200030BD70470148FFF7F2BB000038000020CA
:101E3000F0B50268164B174C174D4FF0804798428B
:101E400005D0B84203D0A04201D0A84203D122F06D
:101E500070064A683243984205D0B84203D0A04287
:101E600001D0A84203D122F44074CA6822434C69CD
:101E700022F08002224302608A68C2620A6882629B
:101E8000984201D10969016301214161F0BD00005F
:101E9000002C0140000400400008004010B5846898
:101EA00042EA032224F47F440A432243826010BDA5
:101EB000826822F070020A4342F007018160704795
:101EC00010B5036A046A24F001040462846924F0F2
:101ED000F00444EA021423F00A020A438461026215
:101EE00010BD10B5036A046A24F01004046284690A
:101EF00023F0A00324F4704444EA023243EA0111BF
:101F00008261016210BD10B5406A0021C185C184A3
:101F1000FFF735FC10BD01680C3151E8002F22F4A9
:101F2000907241E80023002BF5D10168143151E88B
:101F3000002F22F0010241E80023002BF5D1016BB4
:101F4000012909D101680C3151E8002F22F010025B
:101F500041E80023002BF5D1202180F84210002118
:101F60000163704708B590F84210222901D0022081
:101F700008BD82684FF480539A4201D1016921B1B2
:101F8000816A9A421BD04AB10AE00268816A5268AB
:101F9000C2F308020A80816A891C08E0026972B1F2
:101FA0000268526802F07F020A70816A491C8162ED
:101FB000C18D491E0904090CC18503D01BE00268CC
:101FC0005268F1E70168CA6822F02002CA6001681D
:101FD000CA6822F48072CA6001684A6922F001026C
:101FE0004A61202180F8421000214163026B012ADE
:101FF00003D0FFF7EFFD002008BD016301680C313D
:1020000051E8002F22F0100241E80023002BF5D107
:1020100001680A68D20602D50A6849680091818D74
:10202000FFF7ACFBE7E7000070B504460068016904
:10203000E26821F44051114301612169A06808431D
:10204000616908432168CA6841F20C639A430243FC
:10205000CA6020684169A26921F44071114341615D
:102060001E492068884202D1FEF7DCFF01E0FEF73E
:10207000C9FF00EBC00101EB001260686421800021
:10208000B2FBF0F3B3FBF1F36FF018067343B2FB4E
:10209000F0F5B2FBF0F605EB8305322303EB0515F3
:1020A000B5FBF1F5B6FBF1F605F0F00505EB06150D
:1020B000B2FBF0F6B2FBF0F0B0FBF1F06FF01802FB
:1020C000504306EB800003EB0010B0FBF1F02168F9
:1020D00000F00F002844886070BD00000038014007
:1020E0002DE9F041984617460E460446069D27E026
:1020F000681C25D02DB1FEF751FEA0EB0800A842C8
:102100001ED920680C3050E8001F21F4D07140E83F
:102110000012002AF5D12068143050E8001F21F089
:10212000010140E80012002AF5D1202084F8410086
:1021300084F84200002084F840000320BDE8F081CC
:102140002068006836EA000004D00020B842CFD0F2
:102150000020F3E70120F9E70148FFF711BB000079
:102160008000002010B500F049F9BDE8104001489A
:10217000FFF706BBC8000020FEE700000FB4054BC8
:1021800010B503A9044A029800F028F810BC5DF8C5
:1021900014FB000095230008340000200907090EF5
:1021A000002804DB00F1E02080F80014704700F004
:1021B0000F0000F1E02080F8141D704702E008C80D
:1021C000121F08C1002AFAD170477047002001E0B1
:1021D00001C1121F002AFBD1704700002DE9FF4FFB
:1021E0008BB09A460F460546002606E025280BD000
:1021F00052460D9990476D1C761C28780028F5D121
:102200000FB03046BDE8F08F0024A046012260499F
:1022100000E0044315F8013F203B02FA03F00842B6
:10222000F7D128782E2817D115F8010F44F00404AF
:102230002A280ED06FF02F022878A0F1300109294A
:102240000AD808EB880102EB410100EB01086D1C84
:10225000F2E757F8048B6D1C287869283ED006DC1D
:102260000028CDD063280BD0642804D136E0732831
:1022700010D075284BD052460D999047761C85E0BA
:1022800017F8040B8DF8000000208DF80100E946D6
:10229000012003E057F8049B4FF0FF3061074FF037
:1022A000000401D40AE0641C44450DDA8442FADBE0
:1022B00019F804100029F6D106E0641C8442FCDB06
:1022C00019F804100029F8D1264404E019F8010B8C
:1022D00052460D999047641EF8D257E001CF4FF057
:1022E0000A0B002802DA40422D2102E0210504D524
:1022F0002B218DF82410012103E0E10705D02021D6
:10230000F7E70DF1200908910CE00021F9E701CF72
:102310004FF00A0BF9E75946FDF7EAFF01F13002E9
:1023200009F8012D0028F6D1ADEB090000F1200BD2
:10233000600701D44FF00108D84502DDA8EB0B007F
:1023400000E000208046002406E009A85246005D17
:102350000D999047641C761C08988442F5DB04E0D4
:10236000302052460D999047761CB8F10001A8F133
:102370000108F5DC05E019F8010B52460D9990476C
:10238000761CBBF10001ABF1010BF4DC6D1C34E7F2
:102390000928010013B54FF6FF7301226946024870
:1023A000FFF719FC00981CBD80000020FEF704FD1B
:1023B000FFF708FDFFF75EFCFFF794FCFFF7C4FC96
:1023C000FFF7DEFC00F03CF800F042F8FCE700000C
:1023D0000148FFF781B800003800002010B5014621
:1023E0000448FDF7A6FE0449002048800870888054
:1023F00010BD000010010020100000200D4810B595
:1024000000680068C043800612D44FF47A7301223A
:1024100009490848FFF788FB0748084B401E4188D8
:1024200042785A54491C4180012101700021818069
:1024300010BD0000C8000020110000201001002085
:1024400010B5FEF771F9BDE81040FFF7C1BF0000FD
:1024500010B5FEF781FA012808D0FEF77DFA0028B2
:1024600004D0BDE8104002A0FFF788BE10BD0000F8
:10247000535543434553532100000000010202031A
:102480000405060708090A0B0C0D0E0F10100000BA
:102490000000000000000102030406070809000014
:1024A000000001020304DDDDDDDDDCBBBBDDDDDDC5
:1024B000DDDDDDDDDDDD98888888888888887777B0
:1024C0007777778888888555555666666666666626
:1024D000666666688888833333322222222222226B
:1024E00022222228888D00000825000800000020F4
:1024F00038000000BC2100084025000838000020FA
:10250000D8060000CC2100080100000010000000E7
:10251000000000000024F4000000000000000000A3
:1025200000000000000000000000000000000000AB
:10253000000000000000000000000000000000009B
:04000005080000ED02
:00000001FF
